{
  "_format": "hh-sol-artifact-1",
  "contractName": "NomadMap",
  "sourceName": "contracts/NomadMap.sol",
  "abi": [
    {
      "inputs": [
        {
          "internalType": "string[]",
          "name": "_name",
          "type": "string[]"
        },
        {
          "internalType": "string[]",
          "name": "_long",
          "type": "string[]"
        },
        {
          "internalType": "string[]",
          "name": "_lat",
          "type": "string[]"
        },
        {
          "internalType": "string[][]",
          "name": "_fbGroup",
          "type": "string[][]"
        }
      ],
      "stateMutability": "nonpayable",
      "type": "constructor"
    },
    {
      "inputs": [
        {
          "internalType": "string",
          "name": "_city",
          "type": "string"
        },
        {
          "internalType": "string",
          "name": "_group",
          "type": "string"
        }
      ],
      "name": "addFBGroup",
      "outputs": [],
      "stateMutability": "nonpayable",
      "type": "function"
    },
    {
      "inputs": [
        {
          "internalType": "string",
          "name": "_city",
          "type": "string"
        },
        {
          "internalType": "string",
          "name": "_group",
          "type": "string"
        }
      ],
      "name": "addWaGroup",
      "outputs": [],
      "stateMutability": "nonpayable",
      "type": "function"
    },
    {
      "inputs": [
        {
          "internalType": "string",
          "name": "_name",
          "type": "string"
        },
        {
          "internalType": "string",
          "name": "_long",
          "type": "string"
        },
        {
          "internalType": "string",
          "name": "_lat",
          "type": "string"
        }
      ],
      "name": "createCity",
      "outputs": [],
      "stateMutability": "nonpayable",
      "type": "function"
    },
    {
      "inputs": [
        {
          "internalType": "string",
          "name": "",
          "type": "string"
        }
      ],
      "name": "mappingCities",
      "outputs": [
        {
          "internalType": "uint256",
          "name": "",
          "type": "uint256"
        }
      ],
      "stateMutability": "view",
      "type": "function"
    },
    {
      "inputs": [],
      "name": "returnAllCities",
      "outputs": [
        {
          "components": [
            {
              "internalType": "string",
              "name": "name",
              "type": "string"
            },
            {
              "internalType": "string",
              "name": "long",
              "type": "string"
            },
            {
              "internalType": "string",
              "name": "lat",
              "type": "string"
            },
            {
              "internalType": "string[]",
              "name": "WaGroupArray",
              "type": "string[]"
            },
            {
              "internalType": "string[]",
              "name": "FBGroupArray",
              "type": "string[]"
            }
          ],
          "internalType": "struct NomadMap.City[]",
          "name": "",
          "type": "tuple[]"
        }
      ],
      "stateMutability": "view",
      "type": "function"
    }
  ],
  "bytecode": "0x608060405260006002553480156200001657600080fd5b50604051620017fc380380620017fc83398181016040528101906200003c9190620006e1565b60005b8451811015620001c1576000806001816001815401808255809150500390600052602060002090600502019050858281518110620000825762000081620007cf565b5b6020026020010151816000019080519060200190620000a3929190620001cc565b50848281518110620000ba57620000b9620007cf565b5b6020026020010151816001019080519060200190620000db929190620001cc565b50838281518110620000f257620000f1620007cf565b5b602002602001015181600201908051906020019062000113929190620001cc565b508282815181106200012a5762000129620007cf565b5b60200260200101518160040190805190602001906200014b9291906200025d565b506002546001878481518110620001675762000166620007cf565b5b60200260200101516040516200017e91906200084b565b90815260200160405180910390208190555060026000815480929190620001a5906200089d565b9190505550508080620001b8906200089d565b9150506200003f565b505050505062000950565b828054620001da906200091a565b90600052602060002090601f016020900481019282620001fe57600085556200024a565b82601f106200021957805160ff19168380011785556200024a565b828001600101855582156200024a579182015b82811115620002495782518255916020019190600101906200022c565b5b509050620002599190620002c4565b5090565b828054828255906000526020600020908101928215620002b1579160200282015b82811115620002b05782518290805190602001906200029f929190620001cc565b50916020019190600101906200027e565b5b509050620002c09190620002e3565b5090565b5b80821115620002df576000816000905550600101620002c5565b5090565b5b80821115620003075760008181620002fd91906200030b565b50600101620002e4565b5090565b50805462000319906200091a565b6000825580601f106200032d57506200034e565b601f0160209004906000526020600020908101906200034d9190620002c4565b5b50565b6000604051905090565b600080fd5b600080fd5b600080fd5b6000601f19601f8301169050919050565b7f4e487b7100000000000000000000000000000000000000000000000000000000600052604160045260246000fd5b620003b5826200036a565b810181811067ffffffffffffffff82111715620003d757620003d66200037b565b5b80604052505050565b6000620003ec62000351565b9050620003fa8282620003aa565b919050565b600067ffffffffffffffff8211156200041d576200041c6200037b565b5b602082029050602081019050919050565b600080fd5b600080fd5b600067ffffffffffffffff8211156200045657620004556200037b565b5b62000461826200036a565b9050602081019050919050565b60005b838110156200048e57808201518184015260208101905062000471565b838111156200049e576000848401525b50505050565b6000620004bb620004b58462000438565b620003e0565b905082815260208101848484011115620004da57620004d962000433565b5b620004e78482856200046e565b509392505050565b600082601f83011262000507576200050662000365565b5b815162000519848260208601620004a4565b91505092915050565b6000620005396200053384620003ff565b620003e0565b905080838252602082019050602084028301858111156200055f576200055e6200042e565b5b835b81811015620005ad57805167ffffffffffffffff81111562000588576200058762000365565b5b808601620005978982620004ef565b8552602085019450505060208101905062000561565b5050509392505050565b600082601f830112620005cf57620005ce62000365565b5b8151620005e184826020860162000522565b91505092915050565b600067ffffffffffffffff8211156200060857620006076200037b565b5b602082029050602081019050919050565b6000620006306200062a84620005ea565b620003e0565b905080838252602082019050602084028301858111156200065657620006556200042e565b5b835b81811015620006a457805167ffffffffffffffff8111156200067f576200067e62000365565b5b8086016200068e8982620005b7565b8552602085019450505060208101905062000658565b5050509392505050565b600082601f830112620006c657620006c562000365565b5b8151620006d884826020860162000619565b91505092915050565b60008060008060808587031215620006fe57620006fd6200035b565b5b600085015167ffffffffffffffff8111156200071f576200071e62000360565b5b6200072d87828801620005b7565b945050602085015167ffffffffffffffff81111562000751576200075062000360565b5b6200075f87828801620005b7565b935050604085015167ffffffffffffffff81111562000783576200078262000360565b5b6200079187828801620005b7565b925050606085015167ffffffffffffffff811115620007b557620007b462000360565b5b620007c387828801620006ae565b91505092959194509250565b7f4e487b7100000000000000000000000000000000000000000000000000000000600052603260045260246000fd5b600081519050919050565b600081905092915050565b60006200082182620007fe565b6200082d818562000809565b93506200083f8185602086016200046e565b80840191505092915050565b600062000859828462000814565b915081905092915050565b7f4e487b7100000000000000000000000000000000000000000000000000000000600052601160045260246000fd5b6000819050919050565b6000620008aa8262000893565b91507fffffffffffffffffffffffffffffffffffffffffffffffffffffffffffffffff821415620008e057620008df62000864565b5b600182019050919050565b7f4e487b7100000000000000000000000000000000000000000000000000000000600052602260045260246000fd5b600060028204905060018216806200093357607f821691505b602082108114156200094a5762000949620008eb565b5b50919050565b610e9c80620009606000396000f3fe608060405234801561001057600080fd5b50600436106100575760003560e01c80635209c6491461005c578063537fdb1614610078578063be3fa83d146100a8578063e3930549146100c4578063e560bdaf146100e0575b600080fd5b610076600480360381019061007191906108af565b6100fe565b005b610092600480360381019061008d9190610927565b610185565b60405161009f9190610989565b60405180910390f35b6100c260048036038101906100bd91906108af565b6101b3565b005b6100de60048036038101906100d991906109a4565b61023a565b005b6100e86102eb565b6040516100f59190610ce9565b60405180910390f35b60006001836040516101109190610d47565b90815260200160405180910390205490506000818154811061013557610134610d5e565b5b90600052602060002090600502016003018290806001815401808255809150506001900390600052602060002001600090919091909150908051906020019061017f9291906106b2565b50505050565b6001818051602081018201805184825260208301602085012081835280955050505050506000915090505481565b60006001836040516101c59190610d47565b9081526020016040518091039020549050600081815481106101ea576101e9610d5e565b5b9060005260206000209060050201600401829080600181540180825580915050600190039060005260206000200160009091909190915090805190602001906102349291906106b2565b50505050565b6000806001816001815401808255809150500390600052602060002090600502019050838160000190805190602001906102759291906106b2565b508281600101908051906020019061028e9291906106b2565b50818160020190805190602001906102a79291906106b2565b506002546001856040516102bb9190610d47565b908152602001604051809103902081905550600260008154809291906102e090610dbc565b919050555050505050565b60606000805480602002602001604051908101604052809291908181526020016000905b828210156106a957838290600052602060002090600502016040518060a001604052908160008201805461034290610e34565b80601f016020809104026020016040519081016040528092919081815260200182805461036e90610e34565b80156103bb5780601f10610390576101008083540402835291602001916103bb565b820191906000526020600020905b81548152906001019060200180831161039e57829003601f168201915b505050505081526020016001820180546103d490610e34565b80601f016020809104026020016040519081016040528092919081815260200182805461040090610e34565b801561044d5780601f106104225761010080835404028352916020019161044d565b820191906000526020600020905b81548152906001019060200180831161043057829003601f168201915b5050505050815260200160028201805461046690610e34565b80601f016020809104026020016040519081016040528092919081815260200182805461049290610e34565b80156104df5780601f106104b4576101008083540402835291602001916104df565b820191906000526020600020905b8154815290600101906020018083116104c257829003601f168201915b5050505050815260200160038201805480602002602001604051908101604052809291908181526020016000905b828210156105b957838290600052602060002001805461052c90610e34565b80601f016020809104026020016040519081016040528092919081815260200182805461055890610e34565b80156105a55780601f1061057a576101008083540402835291602001916105a5565b820191906000526020600020905b81548152906001019060200180831161058857829003601f168201915b50505050508152602001906001019061050d565b50505050815260200160048201805480602002602001604051908101604052809291908181526020016000905b8282101561069257838290600052602060002001805461060590610e34565b80601f016020809104026020016040519081016040528092919081815260200182805461063190610e34565b801561067e5780601f106106535761010080835404028352916020019161067e565b820191906000526020600020905b81548152906001019060200180831161066157829003601f168201915b5050505050815260200190600101906105e6565b50505050815250508152602001906001019061030f565b50505050905090565b8280546106be90610e34565b90600052602060002090601f0160209004810192826106e05760008555610727565b82601f106106f957805160ff1916838001178555610727565b82800160010185558215610727579182015b8281111561072657825182559160200191906001019061070b565b5b5090506107349190610738565b5090565b5b80821115610751576000816000905550600101610739565b5090565b6000604051905090565b600080fd5b600080fd5b600080fd5b600080fd5b6000601f19601f8301169050919050565b7f4e487b7100000000000000000000000000000000000000000000000000000000600052604160045260246000fd5b6107bc82610773565b810181811067ffffffffffffffff821117156107db576107da610784565b5b80604052505050565b60006107ee610755565b90506107fa82826107b3565b919050565b600067ffffffffffffffff82111561081a57610819610784565b5b61082382610773565b9050602081019050919050565b82818337600083830152505050565b600061085261084d846107ff565b6107e4565b90508281526020810184848401111561086e5761086d61076e565b5b610879848285610830565b509392505050565b600082601f83011261089657610895610769565b5b81356108a684826020860161083f565b91505092915050565b600080604083850312156108c6576108c561075f565b5b600083013567ffffffffffffffff8111156108e4576108e3610764565b5b6108f085828601610881565b925050602083013567ffffffffffffffff81111561091157610910610764565b5b61091d85828601610881565b9150509250929050565b60006020828403121561093d5761093c61075f565b5b600082013567ffffffffffffffff81111561095b5761095a610764565b5b61096784828501610881565b91505092915050565b6000819050919050565b61098381610970565b82525050565b600060208201905061099e600083018461097a565b92915050565b6000806000606084860312156109bd576109bc61075f565b5b600084013567ffffffffffffffff8111156109db576109da610764565b5b6109e786828701610881565b935050602084013567ffffffffffffffff811115610a0857610a07610764565b5b610a1486828701610881565b925050604084013567ffffffffffffffff811115610a3557610a34610764565b5b610a4186828701610881565b9150509250925092565b600081519050919050565b600082825260208201905092915050565b6000819050602082019050919050565b600081519050919050565b600082825260208201905092915050565b60005b83811015610ab1578082015181840152602081019050610a96565b83811115610ac0576000848401525b50505050565b6000610ad182610a77565b610adb8185610a82565b9350610aeb818560208601610a93565b610af481610773565b840191505092915050565b600081519050919050565b600082825260208201905092915050565b6000819050602082019050919050565b6000610b378383610ac6565b905092915050565b6000602082019050919050565b6000610b5782610aff565b610b618185610b0a565b935083602082028501610b7385610b1b565b8060005b85811015610baf5784840389528151610b908582610b2b565b9450610b9b83610b3f565b925060208a01995050600181019050610b77565b50829750879550505050505092915050565b600060a0830160008301518482036000860152610bde8282610ac6565b91505060208301518482036020860152610bf88282610ac6565b91505060408301518482036040860152610c128282610ac6565b91505060608301518482036060860152610c2c8282610b4c565b91505060808301518482036080860152610c468282610b4c565b9150508091505092915050565b6000610c5f8383610bc1565b905092915050565b6000602082019050919050565b6000610c7f82610a4b565b610c898185610a56565b935083602082028501610c9b85610a67565b8060005b85811015610cd75784840389528151610cb88582610c53565b9450610cc383610c67565b925060208a01995050600181019050610c9f565b50829750879550505050505092915050565b60006020820190508181036000830152610d038184610c74565b905092915050565b600081905092915050565b6000610d2182610a77565b610d2b8185610d0b565b9350610d3b818560208601610a93565b80840191505092915050565b6000610d538284610d16565b915081905092915050565b7f4e487b7100000000000000000000000000000000000000000000000000000000600052603260045260246000fd5b7f4e487b7100000000000000000000000000000000000000000000000000000000600052601160045260246000fd5b6000610dc782610970565b91507fffffffffffffffffffffffffffffffffffffffffffffffffffffffffffffffff821415610dfa57610df9610d8d565b5b600182019050919050565b7f4e487b7100000000000000000000000000000000000000000000000000000000600052602260045260246000fd5b60006002820490506001821680610e4c57607f821691505b60208210811415610e6057610e5f610e05565b5b5091905056fea2646970667358221220068d0fc613145b4775084f1c4be29f5fdc4d85707fd2b09246b549990d4825a664736f6c63430008090033",
  "linkReferences": {},
  "deployedLinkReferences": {}
}